:100000000C94C3000C94E0000C94E0000C94E0000D
:100010000C94E0000C94E0000C94E0000C94E000E0
:100020000C94E0000C94E0000C94C5010C940002C8
:100030000C94E0000C94E0000C94E0000C94E000C0
:100040000C94E0000C94E0000C94E0000C94E000B0
:100050000C94E0000C94E0000C94E0000C94B104CB
:100060000C94E0000C94E0000C94E0000C94E00090
:100070000C94E0000C94E0000C94E0000C94E00080
:100080000C94E0000C94E0000C94E0000C94E00070
:100090000C94E0000C94E0000C94E0000C94E00060
:1000A0000C94E0000C94E0000C94E00000010000CF
:1000B0006C011200020000270129002200005001FB
:1000C0001C00210000390109000300002301040184
:1000D00003090401012002030904DD002222034870
:1000E00000490044002000440061007400610020C9
:1000F000004500780061006D0070006C0065000034
:100100000020034E0069006C006500730068002049
:10011000004D0075006E0064007000680061006EA4
:100120000000000403090409022900010100C03293
:10013000090400000203000000092111010001224E
:100140001C00070581034000020705020340000868
:1001500006ABFF0A0002A1017508150026FF0095F5
:100160004009018102954009029102C0120100027A
:1001700000000020C016800400010102000101C13E
:100180003601C036000011241FBECFEFDAE0DEBF1B
:10019000CDBF11E0A0E0B1E0E8E4FFE002C00590CF
:1001A0000D92AA30B107D9F721E0AAE0B1E001C071
:1001B0001D92A535B207E1F70E943B040C94A207FB
:1001C0000C94000081E08093D70080EA8093D800EF
:1001D00082E189BD09B400FEFDCF80E98093D8009B
:1001E0001092E00010920C018CE08093E200789471
:1001F000089580910C010895CF93DF93FC018091C5
:100200000C01882309F4B5C08FB7F89460930A01F4
:1002100091E09093E9009091E80095FD22C08FBF96
:1002200080910A01882309F4A6C080910C018823DB
:1002300009F4A3C0C9EED0E021E0A8EEB0E00BC005
:100240008FBF80910A01882309F499C080910C0125
:10025000882309F496C08FB7F89428839C9195FF62
:10026000EFCF9081A1EFB0E09C9391819C9392811C
:100270009C9393819C9394819C9395819C9396816C
:100280009C9397819C9390859C9391859C93928558
:100290009C9393859C9394859C9395859C9396853C
:1002A0009C9397859C9390899C9391899C93928928
:1002B0009C9393899C9394899C9395899C9396890C
:1002C0009C9397899C93908D9C93918D9C93928DF8
:1002D0009C93938D9C93948D9C93958D9C93968DDC
:1002E0009C93978D9C9390A19C9391A19C9392A198
:1002F0009C9393A19C9394A19C9395A19C9396A16C
:100300009C9397A19C9390A59C9391A59C9392A557
:100310009C9393A59C9394A59C9395A59C9396A53B
:100320009C9397A59C9390A99C9391A99C9392A927
:100330009C9393A99C9394A99C9395A99C9396A90B
:100340009C9397A99C9390AD9C9391AD9C9392ADF7
:100350009C9393AD9C9394AD9C9395AD9C9396ADDB
:100360009C9397AD9C939AE39093E8008FBF80E4B1
:1003700009C08FEF07C080E005C08FEF03C080E0A9
:1003800001C08FEFDF91CF9108951F920F920FB6AA
:100390000F9211248F939F93EF93FF93E1EEF0E080
:1003A0008081108283FF0FC01092E90091E090934A
:1003B000EB001092EC0092E29093ED0098E09093A5
:1003C000F00010920C0182FF12C080910C01882372
:1003D00071F080910B01882319F0815080930B01FB
:1003E00080910A01882319F0815080930A01FF91BE
:1003F000EF919F918F910F900FBE0F901F901895C6
:100400001F920F920FB60F9211240F931F932F93E9
:100410003F934F935F936F937F938F939F93AF938C
:10042000BF93CF93DF93EF93FF931092E9008091F6
:10043000E80083FF42C1E1EFF0E06081808120812C
:10044000908130E0392B4081908150E0592B7081B0
:10045000C08192EF9093E800863009F057C004C045
:1004600081E28093EB0034C167E08CEA90E0FC010C
:10047000A591B4912A173B0711F0079622C0FC0101
:100480003296A591B4914A175B0711F0079619C0EF
:10049000FC01349645915491FC0136962491872FA6
:1004A00090E09C2B8F3F910519F010F08FEF90E0BA
:1004B000821708F4282FA8EEB0E06EEFC1EFD0E06D
:1004C00003C06150A1F6CCCF8C91982F9570E1F3C9
:1004D00082FDFEC0322F213208F030E2332309F4CE
:1004E000F0C0FA01832F9491988381503196811145
:1004F000FACF8FEF830F90E00196480F591F231B0F
:100500006C932111E1CF3032F9F2E2C0853061F411
:100510008EEF8093E800E8EEF0E0808180FFFDCF71
:1005200020682093E300D4C0893089F5611186C02A
:1005300020930C018EEF8093E80081E02EE731E0FC
:10054000C9EED0E0ABEEB0E00CEE10E06DEE70E086
:100550008883A9014F5F5F4FF90194919C93992380
:1005600061F0FA014491F8014083F90132969491C7
:100570002D5F3F4FFB01908301C09A018F5F853053
:1005800039F7EAEEF0E08EE180831082A1C0883076
:1005900081F4603809F052C0E8EEF0E0808180FF1D
:1005A000FDCF80910C018093F1008EEF8093E800E5
:1005B0008FC081111AC0E8EEF0E0808180FFFDCF8E
:1005C000623851F4E9EEF0E040838091EB0085FB66
:1005D000882780F9108201C080E0E1EFF0E080839D
:1005E00010828EEF8093E80073C0982F9D7F91302A
:1005F00029F5623019F5232B09F05FC04F779FEF83
:10060000940F943008F059C09EEF9093E800409307
:10061000E900833021F481E28093EB0059C089E145
:100620008093EB0081E090E002C0880F991F4A950B
:10063000E2F7EAEEF0E0808310824AC0452B09F031
:100640003CC0613AF9F48130C1F520E4E8EEF0E015
:100650003EEFA1EFB0E08081982F9570E1F382FD2D
:1006600037C0922F213208F090E2992371F1892F3F
:100670001C928150E9F7291B30832111ECCF903275
:1006800051F326C06132C9F48930B9F490E4E8EE40
:10069000F0E03BEF292F913208F020E2808182FFC9
:1006A000FDCF3083921BB1F7E8EEF0E0808180FF50
:1006B000FDCF8EEF8093E8000BC081E28093EB00CA
:1006C00007C06C93211100CF03C030832111C3CF29
:1006D000FF91EF91DF91CF91BF91AF919F918F915A
:1006E0007F916F915F914F913F912F911F910F914A
:1006F0000F900FBE0F901F901895249A2C9A259A50
:100700002D9A089528E030E090E8492F482311F40D
:100710002C9801C02C9A2D9A45E14A95F1F70000DA
:100720002D9845E14A95F1F7000096952150310941
:1007300061F724982C9A2D9A85E18A95F1F70000AB
:1007400083B12D98249A2C988295817091E0892705
:1007500008952C9895E19A95F1F700002D980E9444
:1007600082030895282F2C9A249898E080E0880F1F
:1007700035E13A95F1F700002D9A1C9981602D988A
:100780009150A9F7249A211102C02C9801C02C9AEB
:100790002D9A95E19A95F1F700002D982C980895DF
:1007A0002C9A2D9A95E19A95F1F700000E94A903E1
:1007B00008952C9885E18A95F1F700002D9A85E13E
:1007C0008A95F1F700002C9A85E18A95F1F70000EF
:1007D0000895AF92BF92CF92DF92EF92FF920F9364
:1007E0001F93CF93DF93C82F162FD72F042F80EDA1
:1007F0000E94A9038823A1F18C2F0E9482038823E1
:1008000079F181ED0E94D003882351F1002329F171
:10081000E12EFD2ECC24CA94C00ED12C8FEFC81A25
:10082000D80AC0E0D0E010E001501109BB24B39415
:10083000A12C8B2DC017D10709F08A2D0E94B2037D
:10084000F70181937F018FE39CE90197F1F700C0E5
:1008500000002196CC15DD0561F70E94D90381E0E7
:10086000DF91CF911F910F91FF90EF90DF90CF908C
:10087000BF90AF900895E1E6F0E080E880831082B9
:100880000E94E2000E94F9008823E1F32FEF33ED8C
:1008900080E3215030408040E1F700C0000014BCEC
:1008A00085E085BD81E080936E000E947D0380ED30
:1008B0000E94A9030E94D90380ED0E94A9038BE640
:1008C0000E94820380E00E9482030E94D903C0E05C
:1008D000D1E04EE06EE071E08BE30E94E903EEE0D0
:1008E000F1E0808590E0982F88272185822B9093D6
:1008F000530180935201228530E0322F2227438515
:10090000242B3093510120935001448550E0542F03
:1009100044276585462B50934F0140934E015F93CA
:100920004F933F932F939F938F93DF93CF93FF9397
:10093000EF930E94CA046AE08EE091E00E94FC00FE
:10094000809154012DB73EB7265F3F4F0FB6F89404
:100950003EBF0FBE2DBF882309F4BBCF10925401B8
:10096000B8CF1F920F920FB60F9211248F938091E0
:100970000D018F5F8B3718F480930D0105C0109225
:100980000D0181E0809354018F910F900FBE0F9065
:100990001F901895AEE0B0E0E0EDF4E00C9479071C
:1009A0000D891E8986E08C831A8309838FEF9FE768
:1009B0009E838D83AE01475E5F4F6F89788DCE0138
:1009C00001960E94ED042F813885F801E20FF31F94
:1009D00010822E96E4E00C949507ACE0B0E0E3EFD3
:1009E000F4E00C946B077C016B018A01FC01178217
:1009F0001682838181FFBDC1CE0101964C01F701B2
:100A00009381F60193FD859193FF81916F01882376
:100A100009F4ABC1853239F493FD859193FF81913F
:100A20006F01853229F4B70190E00E94D506E7CF27
:100A3000512C312C20E02032A0F48B3269F030F4BC
:100A4000803259F0833269F420612CC08D3239F044
:100A5000803339F4216026C02260246023C02860DE
:100A600021C027FD27C030ED380F3A3078F426FF3B
:100A700006C0FAE05F9E300D1124532E13C08AE0A9
:100A8000389E300D1124332E20620CC08E3221F49A
:100A900026FD6BC1206406C08C3611F4206802C0AC
:100AA000883641F4F60193FD859193FF81916F01A2
:100AB0008111C1CF982F9F7D9554933028F40C5FFE
:100AC0001F4FFFE3F9830DC0833631F0833771F098
:100AD000833509F05BC022C0F801808189830E5FF5
:100AE0001F4F44244394512C540115C03801F2E0A7
:100AF0006F0E711CF801A080B18026FF03C0652D28
:100B000070E002C06FEF7FEFC5012C870E94CA061C
:100B10002C0183012C852F77222E17C03801F2E09B
:100B20006F0E711CF801A080B18026FF03C0652DF7
:100B300070E002C06FEF7FEFC5012C870E94BF06F7
:100B40002C012C852068222E830123FC1BC0832DC1
:100B500090E048165906B0F4B70180E290E00E9498
:100B6000D5063A94F4CFF50127FC859127FE8191B3
:100B70005F01B70190E00E94D50631103A94F1E090
:100B80004F1A51084114510471F7E5C0843611F031
:100B9000893639F5F80127FF07C0608171818281AC
:100BA00093810C5F1F4F08C060817181072E000C7C
:100BB000880B990B0E5F1F4F2F76722E97FF09C07F
:100BC00090958095709561957F4F8F4F9F4F2068CE
:100BD000722E2AE030E0A4010E940D07A82EA8186A
:100BE00044C0853729F42F7EB22E2AE030E025C09C
:100BF000F22FF97FBF2E8F36C1F018F4883579F0C7
:100C0000B4C0803719F0883721F0AFC02F2F206192
:100C1000B22EB4FE0DC08B2D8460B82E09C024FF07
:100C20000AC09F2F9660B92E06C028E030E005C0AC
:100C300020E130E002C020E132E0F801B7FE07C059
:100C400060817181828193810C5F1F4F06C060813A
:100C5000718180E090E00E5F1F4FA4010E940D079C
:100C6000A82EA818FB2DFF777F2E76FE0BC0372D00
:100C70003E7FA51450F474FE0AC072FC08C0372DE4
:100C80003E7E05C0BA2C372D03C0BA2C01C0B52C4E
:100C900034FF0DC0FE01EA0DF11D8081803311F497
:100CA000397E09C032FF06C0B394B39404C0832FC9
:100CB000867809F0B39433FD13C030FF06C05A2C78
:100CC000B31418F4530C5B18B32CB31468F4B701C5
:100CD00080E290E03C870E94D506B3943C85F5CF36
:100CE000B31410F43B1801C0312C34FF12C0B7010B
:100CF00080E390E03C870E94D5063C8532FF17C018
:100D000031FD03C088E790E002C088E590E0B701BC
:100D10000CC0832F867859F031FF02C08BE201C0EE
:100D200080E237FD8DE2B70190E00E94D506A51460
:100D300038F4B70180E390E00E94D5065A94F7CFCB
:100D4000AA94F401EA0DF11D8081B70190E00E94A0
:100D5000D506A110F5CF332009F451CEB70180E2BA
:100D600090E00E94D5063A94F6CFF70186819781EC
:100D700002C08FEF9FEF2C96E2E10C948707FC01F5
:100D80000590615070400110D8F7809590958E0FB6
:100D90009F1F0895FC016150704001900110D8F729
:100DA000809590958E0F9F1F08950F931F93CF935B
:100DB000DF93FB01238121FD03C08FEF9FEF28C04C
:100DC00022FF16C04681578124813581421753077F
:100DD00044F4A081B1819D012F5F3F4F3183208377
:100DE0008C93268137812F5F3F4F3783268310C036
:100DF000EB01092F182F0084F185E02D0995892B2F
:100E0000E1F68E819F8101969F838E83812F902FA3
:100E1000DF91CF911F910F910895FA01AA272830F1
:100E200051F1203181F1E8946F936E7F6E5F7F4FB7
:100E30008F4F9F4FAF4FB1E03ED0B4E03CD0670F33
:100E4000781F891F9A1FA11D680F791F8A1F911D86
:100E5000A11D6A0F711D811D911DA11D20D009F4D6
:100E600068943F912AE0269F11243019305D319318
:100E7000DEF6CF010895462F4770405D4193B3E001
:100E80000FD0C9F7F6CF462F4F70405D4A3318F0A8
:100E9000495D31FD4052419302D0A9F7EACFB4E059
:100EA000A6959795879577956795BA95C9F7009711
:100EB0006105710508959B01AC010A2E06945795B2
:100EC000479537952795BA95C9F7620F731F841F09
:100ED000951FA01D08952F923F924F925F926F929F
:100EE0007F928F929F92AF92BF92CF92DF92EF92BA
:100EF000FF920F931F93CF93DF93CDB7DEB7CA1B3B
:100F0000DB0B0FB6F894DEBF0FBECDBF09942A8865
:100F1000398848885F846E847D848C849B84AA840D
:100F2000B984C884DF80EE80FD800C811B81AA819A
:100F3000B981CE0FD11D0FB6F894DEBF0FBECDBF65
:080F4000ED010895F894FFCFC4
:0A0F480025642C25642C25640000AC
:00000001FF
